{
  "contractName": "BankAppAuth",
  "abi": [
    {
      "anonymous": false,
      "inputs": [
        {
          "indexed": false,
          "internalType": "address",
          "name": "userAddress",
          "type": "address"
        }
      ],
      "name": "UserAuthenticated",
      "type": "event"
    },
    {
      "anonymous": false,
      "inputs": [
        {
          "indexed": false,
          "internalType": "address",
          "name": "userAddress",
          "type": "address"
        },
        {
          "indexed": false,
          "internalType": "string",
          "name": "username",
          "type": "string"
        },
        {
          "indexed": false,
          "internalType": "string",
          "name": "role",
          "type": "string"
        }
      ],
      "name": "UserRegistered",
      "type": "event"
    },
    {
      "inputs": [
        {
          "internalType": "address",
          "name": "",
          "type": "address"
        }
      ],
      "name": "users",
      "outputs": [
        {
          "internalType": "string",
          "name": "username",
          "type": "string"
        },
        {
          "internalType": "bytes32",
          "name": "passwordHash",
          "type": "bytes32"
        },
        {
          "internalType": "string",
          "name": "role",
          "type": "string"
        },
        {
          "internalType": "bool",
          "name": "isRegistered",
          "type": "bool"
        }
      ],
      "stateMutability": "view",
      "type": "function"
    },
    {
      "inputs": [
        {
          "internalType": "address",
          "name": "_userAddress",
          "type": "address"
        },
        {
          "internalType": "string",
          "name": "_username",
          "type": "string"
        },
        {
          "internalType": "bytes32",
          "name": "_passwordHash",
          "type": "bytes32"
        },
        {
          "internalType": "string",
          "name": "_role",
          "type": "string"
        }
      ],
      "name": "registerUser",
      "outputs": [],
      "stateMutability": "nonpayable",
      "type": "function"
    },
    {
      "inputs": [
        {
          "internalType": "address",
          "name": "_userAddress",
          "type": "address"
        },
        {
          "internalType": "bytes32",
          "name": "_passwordHash",
          "type": "bytes32"
        }
      ],
      "name": "authenticateUser",
      "outputs": [
        {
          "internalType": "bool",
          "name": "",
          "type": "bool"
        }
      ],
      "stateMutability": "nonpayable",
      "type": "function"
    },
    {
      "inputs": [
        {
          "internalType": "address",
          "name": "_userAddress",
          "type": "address"
        }
      ],
      "name": "getUserRole",
      "outputs": [
        {
          "internalType": "string",
          "name": "",
          "type": "string"
        }
      ],
      "stateMutability": "view",
      "type": "function"
    }
  ],
  "bytecode": "0x608060405234801561001057600080fd5b50610d4a806100206000396000f3fe608060405234801561001057600080fd5b506004361061004c5760003560e01c80630c7656b514610051578063278208511461006d5780633125e6e71461009d578063a87430ba146100cd575b600080fd5b61006b60048036038101906100669190610835565b610100565b005b610087600480360381019061008291906107d0565b610299565b6040516100949190610a69565b60405180910390f35b6100b760048036038101906100b291906107f9565b6103fa565b6040516100c49190610a4e565b60405180910390f35b6100e760048036038101906100e291906107d0565b61054e565b6040516100f79493929190610a8b565b60405180910390f35b6000808573ffffffffffffffffffffffffffffffffffffffff1673ffffffffffffffffffffffffffffffffffffffff16815260200190815260200160002060030160009054906101000a900460ff161561018f576040517f08c379a000000000000000000000000000000000000000000000000000000000815260040161018690610afe565b60405180910390fd5b6040518060800160405280848152602001838152602001828152602001600115158152506000808673ffffffffffffffffffffffffffffffffffffffff1673ffffffffffffffffffffffffffffffffffffffff168152602001908152602001600020600082015181600001908051906020019061020d92919061069b565b5060208201518160010155604082015181600201908051906020019061023492919061069b565b5060608201518160030160006101000a81548160ff0219169083151502179055509050507f92822564bab8864c3a47b34e8d23fbce5c46234eb5da261f94087b995ac0f33b84848360405161028b93929190610a09565b60405180910390a150505050565b60606000808373ffffffffffffffffffffffffffffffffffffffff1673ffffffffffffffffffffffffffffffffffffffff16815260200190815260200160002060030160009054906101000a900460ff16610329576040517f08c379a000000000000000000000000000000000000000000000000000000000815260040161032090610b1e565b60405180910390fd5b6000808373ffffffffffffffffffffffffffffffffffffffff1673ffffffffffffffffffffffffffffffffffffffff168152602001908152602001600020600201805461037590610c45565b80601f01602080910402602001604051908101604052809291908181526020018280546103a190610c45565b80156103ee5780601f106103c3576101008083540402835291602001916103ee565b820191906000526020600020905b8154815290600101906020018083116103d157829003601f168201915b50505050509050919050565b60008060008473ffffffffffffffffffffffffffffffffffffffff1673ffffffffffffffffffffffffffffffffffffffff16815260200190815260200160002060030160009054906101000a900460ff1661048a576040517f08c379a000000000000000000000000000000000000000000000000000000000815260040161048190610b1e565b60405180910390fd5b816000808573ffffffffffffffffffffffffffffffffffffffff1673ffffffffffffffffffffffffffffffffffffffff168152602001908152602001600020600101541461050d576040517f08c379a000000000000000000000000000000000000000000000000000000000815260040161050490610ade565b60405180910390fd5b7fc33c48353ef54fd43cb788278ab804ec5fe708d0a0a7d9169563cdb83e0136278360405161053c91906109ee565b60405180910390a16001905092915050565b600060205280600052604060002060009150905080600001805461057190610c45565b80601f016020809104026020016040519081016040528092919081815260200182805461059d90610c45565b80156105ea5780601f106105bf576101008083540402835291602001916105ea565b820191906000526020600020905b8154815290600101906020018083116105cd57829003601f168201915b50505050509080600101549080600201805461060590610c45565b80601f016020809104026020016040519081016040528092919081815260200182805461063190610c45565b801561067e5780601f106106535761010080835404028352916020019161067e565b820191906000526020600020905b81548152906001019060200180831161066157829003601f168201915b5050505050908060030160009054906101000a900460ff16905084565b8280546106a790610c45565b90600052602060002090601f0160209004810192826106c95760008555610710565b82601f106106e257805160ff1916838001178555610710565b82800160010185558215610710579182015b8281111561070f5782518255916020019190600101906106f4565b5b50905061071d9190610721565b5090565b5b8082111561073a576000816000905550600101610722565b5090565b600061075161074c84610b6f565b610b3e565b90508281526020810184848401111561076957600080fd5b610774848285610c03565b509392505050565b60008135905061078b81610ce6565b92915050565b6000813590506107a081610cfd565b92915050565b600082601f8301126107b757600080fd5b81356107c784826020860161073e565b91505092915050565b6000602082840312156107e257600080fd5b60006107f08482850161077c565b91505092915050565b6000806040838503121561080c57600080fd5b600061081a8582860161077c565b925050602061082b85828601610791565b9150509250929050565b6000806000806080858703121561084b57600080fd5b60006108598782880161077c565b945050602085013567ffffffffffffffff81111561087657600080fd5b610882878288016107a6565b935050604061089387828801610791565b925050606085013567ffffffffffffffff8111156108b057600080fd5b6108bc878288016107a6565b91505092959194509250565b6108d181610bbb565b82525050565b6108e081610bcd565b82525050565b6108ef81610bd9565b82525050565b600061090082610b9f565b61090a8185610baa565b935061091a818560208601610c12565b61092381610cd5565b840191505092915050565b600061093b601483610baa565b91507f496e76616c69642063726564656e7469616c732e0000000000000000000000006000830152602082019050919050565b600061097b601483610baa565b91507f5573657220616c7265616479206578697374732e0000000000000000000000006000830152602082019050919050565b60006109bb601483610baa565b91507f55736572206e6f7420726567697374657265642e0000000000000000000000006000830152602082019050919050565b6000602082019050610a0360008301846108c8565b92915050565b6000606082019050610a1e60008301866108c8565b8181036020830152610a3081856108f5565b90508181036040830152610a4481846108f5565b9050949350505050565b6000602082019050610a6360008301846108d7565b92915050565b60006020820190508181036000830152610a8381846108f5565b905092915050565b60006080820190508181036000830152610aa581876108f5565b9050610ab460208301866108e6565b8181036040830152610ac681856108f5565b9050610ad560608301846108d7565b95945050505050565b60006020820190508181036000830152610af78161092e565b9050919050565b60006020820190508181036000830152610b178161096e565b9050919050565b60006020820190508181036000830152610b37816109ae565b9050919050565b6000604051905081810181811067ffffffffffffffff82111715610b6557610b64610ca6565b5b8060405250919050565b600067ffffffffffffffff821115610b8a57610b89610ca6565b5b601f19601f8301169050602081019050919050565b600081519050919050565b600082825260208201905092915050565b6000610bc682610be3565b9050919050565b60008115159050919050565b6000819050919050565b600073ffffffffffffffffffffffffffffffffffffffff82169050919050565b82818337600083830152505050565b60005b83811015610c30578082015181840152602081019050610c15565b83811115610c3f576000848401525b50505050565b60006002820490506001821680610c5d57607f821691505b60208210811415610c7157610c70610c77565b5b50919050565b7f4e487b7100000000000000000000000000000000000000000000000000000000600052602260045260246000fd5b7f4e487b7100000000000000000000000000000000000000000000000000000000600052604160045260246000fd5b6000601f19601f8301169050919050565b610cef81610bbb565b8114610cfa57600080fd5b50565b610d0681610bd9565b8114610d1157600080fd5b5056fea264697066735822122020e48e29f69092de4b80f2f1a0f065ecc521593b00b2891fdccbe8c80125405364736f6c63430008000033",
  "immutableReferences": {},
  "source": "// SPDX-License-Identifier: MIT\r\npragma solidity ^0.8.0;\r\n\r\ncontract BankAppAuth {\r\n    struct User {\r\n        string username;\r\n        bytes32 passwordHash; // Storing the hash of the password\r\n        string role; // User role for access control\r\n        bool isRegistered;\r\n    }\r\n\r\n    mapping(address => User) public users;\r\n\r\n    event UserRegistered(address userAddress, string username, string role);\r\n    event UserAuthenticated(address userAddress);\r\n\r\n    // Function to register a new user\r\n    function registerUser(address _userAddress, string memory _username, bytes32 _passwordHash, string memory _role) public {\r\n        require(!users[_userAddress].isRegistered, \"User already exists.\");\r\n        users[_userAddress] = User(_username, _passwordHash, _role, true);\r\n        emit UserRegistered(_userAddress, _username, _role);\r\n    }\r\n\r\n    // Function to authenticate a user\r\n    function authenticateUser(address _userAddress, bytes32 _passwordHash) public returns (bool) {\r\n        require(users[_userAddress].isRegistered, \"User not registered.\");\r\n        require(users[_userAddress].passwordHash == _passwordHash, \"Invalid credentials.\");\r\n        emit UserAuthenticated(_userAddress);\r\n        return true;\r\n    }\r\n\r\n    // Function to get user role\r\n    function getUserRole(address _userAddress) public view returns (string memory) {\r\n        require(users[_userAddress].isRegistered, \"User not registered.\");\r\n        return users[_userAddress].role;\r\n    }\r\n}\r\n",
  "sourcePath": "C:\\Users\\donni\\Desktop\\Zero Trust Banking\\ClementApp\\blockchain\\contracts\\MyContract.sol",
  "compiler": {
    "name": "solc",
    "version": "0.8.0+commit.c7dfd78e.Emscripten.clang"
  },
  "schemaVersion": "3.4.16",
  "updatedAt": "2023-11-25T12:49:19.272Z",
  "devdoc": {
    "kind": "dev",
    "methods": {},
    "version": 1
  },
  "userdoc": {
    "kind": "user",
    "methods": {},
    "version": 1
  }
}