{
  "contractName": "TestContract",
  "abi": [
    {
      "inputs": [],
      "name": "doNothing",
      "outputs": [],
      "stateMutability": "nonpayable",
      "type": "function"
    }
  ],
  "bytecode": "0x6080604052348015600e575f80fd5b50606280601a5f395ff3fe6080604052348015600e575f80fd5b50600436106026575f3560e01c80632f576f2014602a575b5f80fd5b00fea2646970667358221220cbf6d01a46976d2203ced78f94cdbf51d92d827a31c38ba5ecbe9bdb07f5686a64736f6c63430008150033",
  "deployedBytecode": "0x6080604052348015600e575f80fd5b50600436106026575f3560e01c80632f576f2014602a575b5f80fd5b00fea2646970667358221220cbf6d01a46976d2203ced78f94cdbf51d92d827a31c38ba5ecbe9bdb07f5686a64736f6c63430008150033",
  "immutableReferences": {},
  "source": "// SPDX-License-Identifier: MIT\r\npragma solidity ^0.8.0;\r\n\r\n\r\ncontract TestContract {\r\n    function doNothing() public {}\r\n}\r\n\r\n    \r\n    // Add additional functions as needed...\r\n\r\n",
  "sourcePath": "C:\\Users\\donni\\Desktop\\Zero Trust Banking\\ClementApp\\blockchain\\contracts\\MyContract.sol",
  "compiler": {
    "name": "solc",
    "version": "0.8.21+commit.d9974bed.Emscripten.clang"
  },
  "schemaVersion": "3.4.16",
  "updatedAt": "2023-11-24T18:54:34.811Z",
  "devdoc": {
    "kind": "dev",
    "methods": {},
    "version": 1
  },
  "userdoc": {
    "kind": "user",
    "methods": {},
    "version": 1
  }
}